{
  "contractName": "CDS",
  "abi": [
    {
      "inputs": [],
      "payable": false,
      "stateMutability": "nonpayable",
      "type": "constructor"
    },
    {
      "anonymous": false,
      "inputs": [
        {
          "indexed": true,
          "internalType": "address",
          "name": "owner",
          "type": "address"
        },
        {
          "indexed": true,
          "internalType": "address",
          "name": "spender",
          "type": "address"
        },
        {
          "indexed": false,
          "internalType": "uint256",
          "name": "value",
          "type": "uint256"
        }
      ],
      "name": "Approval",
      "type": "event"
    },
    {
      "anonymous": false,
      "inputs": [
        {
          "indexed": true,
          "internalType": "address",
          "name": "from",
          "type": "address"
        },
        {
          "indexed": true,
          "internalType": "address",
          "name": "to",
          "type": "address"
        },
        {
          "indexed": false,
          "internalType": "uint256",
          "name": "value",
          "type": "uint256"
        }
      ],
      "name": "Transfer",
      "type": "event"
    },
    {
      "constant": true,
      "inputs": [],
      "name": "state",
      "outputs": [
        {
          "internalType": "enum CDS.Phase",
          "name": "",
          "type": "uint8"
        }
      ],
      "payable": false,
      "stateMutability": "view",
      "type": "function"
    },
    {
      "constant": false,
      "inputs": [
        {
          "internalType": "uint256",
          "name": "id",
          "type": "uint256"
        }
      ],
      "name": "register",
      "outputs": [],
      "payable": false,
      "stateMutability": "nonpayable",
      "type": "function"
    },
    {
      "constant": false,
      "inputs": [
        {
          "internalType": "address",
          "name": "member",
          "type": "address"
        }
      ],
      "name": "unregister",
      "outputs": [],
      "payable": false,
      "stateMutability": "nonpayable",
      "type": "function"
    },
    {
      "constant": false,
      "inputs": [
        {
          "internalType": "uint256",
          "name": "rating",
          "type": "uint256"
        }
      ],
      "name": "feedback",
      "outputs": [],
      "payable": false,
      "stateMutability": "nonpayable",
      "type": "function"
    },
    {
      "constant": false,
      "inputs": [
        {
          "internalType": "address",
          "name": "student",
          "type": "address"
        }
      ],
      "name": "reward",
      "outputs": [],
      "payable": true,
      "stateMutability": "payable",
      "type": "function"
    },
    {
      "constant": false,
      "inputs": [
        {
          "internalType": "uint256",
          "name": "item",
          "type": "uint256"
        }
      ],
      "name": "redeem",
      "outputs": [],
      "payable": true,
      "stateMutability": "payable",
      "type": "function"
    },
    {
      "constant": true,
      "inputs": [],
      "name": "balanceOf",
      "outputs": [
        {
          "internalType": "uint256",
          "name": "",
          "type": "uint256"
        }
      ],
      "payable": false,
      "stateMutability": "view",
      "type": "function"
    },
    {
      "constant": true,
      "inputs": [],
      "name": "Reward_item",
      "outputs": [
        {
          "internalType": "uint256",
          "name": "",
          "type": "uint256"
        }
      ],
      "payable": false,
      "stateMutability": "view",
      "type": "function"
    },
    {
      "constant": false,
      "inputs": [
        {
          "internalType": "uint256",
          "name": "numProposals",
          "type": "uint256"
        }
      ],
      "name": "Initialte_voting",
      "outputs": [],
      "payable": false,
      "stateMutability": "nonpayable",
      "type": "function"
    },
    {
      "constant": false,
      "inputs": [
        {
          "internalType": "enum CDS.Phase",
          "name": "x",
          "type": "uint8"
        }
      ],
      "name": "changeState",
      "outputs": [],
      "payable": false,
      "stateMutability": "nonpayable",
      "type": "function"
    },
    {
      "constant": false,
      "inputs": [],
      "name": "register_for_voting",
      "outputs": [],
      "payable": false,
      "stateMutability": "nonpayable",
      "type": "function"
    },
    {
      "constant": false,
      "inputs": [
        {
          "internalType": "uint256",
          "name": "toProposal",
          "type": "uint256"
        }
      ],
      "name": "Vote",
      "outputs": [],
      "payable": false,
      "stateMutability": "nonpayable",
      "type": "function"
    },
    {
      "constant": true,
      "inputs": [],
      "name": "Show_Result",
      "outputs": [
        {
          "internalType": "uint256",
          "name": "winningProposal",
          "type": "uint256"
        }
      ],
      "payable": false,
      "stateMutability": "view",
      "type": "function"
    },
    {
      "constant": true,
      "inputs": [],
      "name": "ShowState",
      "outputs": [
        {
          "internalType": "enum CDS.Phase",
          "name": "",
          "type": "uint8"
        }
      ],
      "payable": false,
      "stateMutability": "view",
      "type": "function"
    }
  ],
  "bytecode": "0x60806040526003600b60006101000a81548160ff021916908360038111156200002457fe5b02179055503480156200003657600080fd5b506040518060400160405280600f81526020017f43616d70757320466565646261636b00000000000000000000000000000000008152506003908051906020019062000084929190620001f7565b506040518060400160405280600381526020017f434642000000000000000000000000000000000000000000000000000000000081525060049080519060200190620000d2929190620001f7565b506127106002819055506002546000803373ffffffffffffffffffffffffffffffffffffffff1673ffffffffffffffffffffffffffffffffffffffff1681526020019081526020016000208190555033600560006101000a81548173ffffffffffffffffffffffffffffffffffffffff021916908373ffffffffffffffffffffffffffffffffffffffff160217905550600160066000600560009054906101000a900473ffffffffffffffffffffffffffffffffffffffff1673ffffffffffffffffffffffffffffffffffffffff1673ffffffffffffffffffffffffffffffffffffffff168152602001908152602001600020600301819055506000600b60006101000a81548160ff02191690836003811115620001ec57fe5b0217905550620002a6565b828054600181600116156101000203166002900490600052602060002090601f016020900481019282601f106200023a57805160ff19168380011785556200026b565b828001600101855582156200026b579182015b828111156200026a5782518255916020019190600101906200024d565b5b5090506200027a91906200027e565b5090565b620002a391905b808211156200029f57600081600090555060010162000285565b5090565b90565b61167280620002b66000396000f3fe6080604052600436106100dc5760003560e01c8063722713f71161007f578063db006a7511610059578063db006a75146102f9578063dcd6a5cd14610327578063dec16c1d14610362578063f207564e1461039d576100dc565b8063722713f71461025c578063c19d93fb14610287578063d69d72d1146102c0576100dc565b8063268f1153116100bb578063268f11531461015e5780632ec2c2461461019c5780634cb4ebf4146101ed5780636353586b14610218576100dc565b806232671a146100e15780631745d5df1461011c57806322d21b5714610133575b600080fd5b3480156100ed57600080fd5b5061011a6004803603602081101561010457600080fd5b81019080803590602001909291905050506103d8565b005b34801561012857600080fd5b50610131610572565b005b34801561013f57600080fd5b5061014861063f565b6040518082815260200191505060405180910390f35b34801561016a57600080fd5b5061019a6004803603602081101561018157600080fd5b81019080803560ff169060200190929190505050610686565b005b3480156101a857600080fd5b506101eb600480360360208110156101bf57600080fd5b81019080803573ffffffffffffffffffffffffffffffffffffffff169060200190929190505050610706565b005b3480156101f957600080fd5b506102026107a0565b6040518082815260200191505060405180910390f35b61025a6004803603602081101561022e57600080fd5b81019080803573ffffffffffffffffffffffffffffffffffffffff16906020019092919050505061084e565b005b34801561026857600080fd5b5061027161094f565b6040518082815260200191505060405180910390f35b34801561029357600080fd5b5061029c610995565b604051808260038111156102ac57fe5b60ff16815260200191505060405180910390f35b3480156102cc57600080fd5b506102d56109a8565b604051808260038111156102e557fe5b60ff16815260200191505060405180910390f35b6103256004803603602081101561030f57600080fd5b81019080803590602001909291905050506109bf565b005b34801561033357600080fd5b506103606004803603602081101561034a57600080fd5b8101908080359060200190929190505050610c14565b005b34801561036e57600080fd5b5061039b6004803603602081101561038557600080fd5b8101908080359060200190929190505050610d0e565b005b3480156103a957600080fd5b506103d6600480360360208110156103c057600080fd5b8101908080359060200190929190505050610df1565b005b6001600660003373ffffffffffffffffffffffffffffffffffffffff1673ffffffffffffffffffffffffffffffffffffffff168152602001908152602001600020600301541461042757600080fd5b6064600860003373ffffffffffffffffffffffffffffffffffffffff1673ffffffffffffffffffffffffffffffffffffffff1681526020019081526020016000205401421161047557600080fd5b42600860003373ffffffffffffffffffffffffffffffffffffffff1673ffffffffffffffffffffffffffffffffffffffff16815260200190815260200160002081905550600081111561056f57600760003373ffffffffffffffffffffffffffffffffffffffff1673ffffffffffffffffffffffffffffffffffffffff1681526020019081526020016000206000815480929190600101919050555061053f600560009054906101000a900473ffffffffffffffffffffffffffffffffffffffff16336014610f4e565b61056d600560009054906101000a900473ffffffffffffffffffffffffffffffffffffffff1633600a611145565b505b50565b600180600381111561058057fe5b600b60009054906101000a900460ff16600381111561059b57fe5b146105a557600080fd5b6001600660003373ffffffffffffffffffffffffffffffffffffffff1673ffffffffffffffffffffffffffffffffffffffff16815260200190815260200160002060030154146105f457600080fd5b6001600660003373ffffffffffffffffffffffffffffffffffffffff1673ffffffffffffffffffffffffffffffffffffffff1681526020019081526020016000206000018190555050565b6000600960003373ffffffffffffffffffffffffffffffffffffffff1673ffffffffffffffffffffffffffffffffffffffff16815260200190815260200160002054905090565b600560009054906101000a900473ffffffffffffffffffffffffffffffffffffffff1673ffffffffffffffffffffffffffffffffffffffff163373ffffffffffffffffffffffffffffffffffffffff16146106e057600080fd5b80600b60006101000a81548160ff021916908360038111156106fe57fe5b021790555050565b6001600660003373ffffffffffffffffffffffffffffffffffffffff1673ffffffffffffffffffffffffffffffffffffffff168152602001908152602001600020600301541461075557600080fd5b6000600660008373ffffffffffffffffffffffffffffffffffffffff1673ffffffffffffffffffffffffffffffffffffffff1681526020019081526020016000206003018190555050565b600060038060038111156107b057fe5b600b60009054906101000a900460ff1660038111156107cb57fe5b146107d557600080fd5b600080905060008090505b600a8054905081101561083d5781600a82815481106107fb57fe5b9060005260206000200160000154111561083057600a818154811061081c57fe5b906000526020600020016000015491508093505b80806001019150506107e0565b50600281101561084957fe5b505090565b600560009054906101000a900473ffffffffffffffffffffffffffffffffffffffff1673ffffffffffffffffffffffffffffffffffffffff163373ffffffffffffffffffffffffffffffffffffffff16146108a857600080fd5b6000600760008373ffffffffffffffffffffffffffffffffffffffff1673ffffffffffffffffffffffffffffffffffffffff1681526020019081526020016000205411610940576040517f08c379a00000000000000000000000000000000000000000000000000000000081526004018080602001828103825260248152602001806115a96024913960400191505060405180910390fd5b61094b81600a611253565b5050565b60008060003373ffffffffffffffffffffffffffffffffffffffff1673ffffffffffffffffffffffffffffffffffffffff16815260200190815260200160002054905090565b600b60009054906101000a900460ff1681565b6000600b60009054906101000a900460ff16905090565b6001600660003373ffffffffffffffffffffffffffffffffffffffff1673ffffffffffffffffffffffffffffffffffffffff1681526020019081526020016000206003015414610a0e57600080fd5b600081118015610a1e5750600481105b610a90576040517f08c379a000000000000000000000000000000000000000000000000000000000815260040180806020018281038252601a8152602001807f73656c65637420616e79206974656d2066726f6d2031202d203300000000000081525060200191505060405180910390fd5b6001811415610b1157610ac6600560009054906101000a900473ffffffffffffffffffffffffffffffffffffffff166014611253565b506001600960003373ffffffffffffffffffffffffffffffffffffffff1673ffffffffffffffffffffffffffffffffffffffff16815260200190815260200160002081905550610c11565b6002811415610b9257610b47600560009054906101000a900473ffffffffffffffffffffffffffffffffffffffff166028611253565b506002600960003373ffffffffffffffffffffffffffffffffffffffff1673ffffffffffffffffffffffffffffffffffffffff16815260200190815260200160002081905550610c10565b6003811415610c0f57610bc8600560009054906101000a900473ffffffffffffffffffffffffffffffffffffffff16603c611253565b506003600960003373ffffffffffffffffffffffffffffffffffffffff1673ffffffffffffffffffffffffffffffffffffffff168152602001908152602001600020819055505b5b5b50565b6002806003811115610c2257fe5b600b60009054906101000a900460ff166003811115610c3d57fe5b14610c4757600080fd5b6000600660003373ffffffffffffffffffffffffffffffffffffffff1673ffffffffffffffffffffffffffffffffffffffff16815260200190815260200160002090508060010160009054906101000a900460ff1615610ca657600080fd5b600a805490508310610cb757600080fd5b60018160010160006101000a81548160ff0219169083151502179055508281600201819055508060000154600a8481548110610cef57fe5b9060005260206000200160000160008282540192505081905550505050565b600560009054906101000a900473ffffffffffffffffffffffffffffffffffffffff1673ffffffffffffffffffffffffffffffffffffffff163373ffffffffffffffffffffffffffffffffffffffff1614610d6857600080fd5b60008090505b81811015610dc957600a60405180602001604052806000815250908060018154018082558091505090600182039060005260206000200160009091929091909150600082015181600001555050508080600101915050610d6e565b506001600b60006101000a81548160ff02191690836003811115610de957fe5b021790555050565b620186a081118015610e055750620f423f81105b610e77576040517f08c379a00000000000000000000000000000000000000000000000000000000081526004018080602001828103825260188152602001807f456e7465722061207661696c642036206469676974204944000000000000000081525060200191505060405180910390fd5b6001600660003373ffffffffffffffffffffffffffffffffffffffff1673ffffffffffffffffffffffffffffffffffffffff168152602001908152602001600020600301819055506000600760003373ffffffffffffffffffffffffffffffffffffffff1673ffffffffffffffffffffffffffffffffffffffff1681526020019081526020016000208190555060644203600860003373ffffffffffffffffffffffffffffffffffffffff1673ffffffffffffffffffffffffffffffffffffffff1681526020019081526020016000208190555050565b600073ffffffffffffffffffffffffffffffffffffffff168373ffffffffffffffffffffffffffffffffffffffff161415610fd4576040517f08c379a000000000000000000000000000000000000000000000000000000000815260040180806020018281038252602481526020018061161a6024913960400191505060405180910390fd5b600073ffffffffffffffffffffffffffffffffffffffff168273ffffffffffffffffffffffffffffffffffffffff16141561105a576040517f08c379a00000000000000000000000000000000000000000000000000000000081526004018080602001828103825260228152602001806115616022913960400191505060405180910390fd5b80600160008573ffffffffffffffffffffffffffffffffffffffff1673ffffffffffffffffffffffffffffffffffffffff16815260200190815260200160002060008473ffffffffffffffffffffffffffffffffffffffff1673ffffffffffffffffffffffffffffffffffffffff168152602001908152602001600020819055508173ffffffffffffffffffffffffffffffffffffffff168373ffffffffffffffffffffffffffffffffffffffff167f8c5be1e5ebec7d5bd14f71427d1e84f3dd0314c0f7b2291e5b200ac8c7c3b925836040518082815260200191505060405180910390a3505050565b6000611152848484611271565b6000600160008673ffffffffffffffffffffffffffffffffffffffff1673ffffffffffffffffffffffffffffffffffffffff168152602001908152602001600020600061119d61152b565b73ffffffffffffffffffffffffffffffffffffffff1673ffffffffffffffffffffffffffffffffffffffff16815260200190815260200160002054905082811015611233576040517f08c379a00000000000000000000000000000000000000000000000000000000081526004018080602001828103825260288152602001806115cd6028913960400191505060405180910390fd5b6112478561123f61152b565b858403610f4e565b60019150509392505050565b600061126761126061152b565b8484611271565b6001905092915050565b600073ffffffffffffffffffffffffffffffffffffffff168373ffffffffffffffffffffffffffffffffffffffff1614156112f7576040517f08c379a00000000000000000000000000000000000000000000000000000000081526004018080602001828103825260258152602001806115f56025913960400191505060405180910390fd5b600073ffffffffffffffffffffffffffffffffffffffff168273ffffffffffffffffffffffffffffffffffffffff16141561137d576040517f08c379a000000000000000000000000000000000000000000000000000000000815260040180806020018281038252602381526020018061153e6023913960400191505060405180910390fd5b611388838383611533565b60008060008573ffffffffffffffffffffffffffffffffffffffff1673ffffffffffffffffffffffffffffffffffffffff16815260200190815260200160002054905081811015611424576040517f08c379a00000000000000000000000000000000000000000000000000000000081526004018080602001828103825260268152602001806115836026913960400191505060405180910390fd5b8181036000808673ffffffffffffffffffffffffffffffffffffffff1673ffffffffffffffffffffffffffffffffffffffff16815260200190815260200160002081905550816000808573ffffffffffffffffffffffffffffffffffffffff1673ffffffffffffffffffffffffffffffffffffffff168152602001908152602001600020600082825401925050819055508273ffffffffffffffffffffffffffffffffffffffff168473ffffffffffffffffffffffffffffffffffffffff167fddf252ad1be2c89b69c2b068fc378daa952ba7f163c4a11628f55a4df523b3ef846040518082815260200191505060405180910390a3611525848484611538565b50505050565b600033905090565b505050565b50505056fe45524332303a207472616e7366657220746f20746865207a65726f206164647265737345524332303a20617070726f766520746f20746865207a65726f206164647265737345524332303a207472616e7366657220616d6f756e7420657863656564732062616c616e636553747564656e742073686f756c642067697665206120666565646261636b20666972737445524332303a207472616e7366657220616d6f756e74206578636565647320616c6c6f77616e636545524332303a207472616e736665722066726f6d20746865207a65726f206164647265737345524332303a20617070726f76652066726f6d20746865207a65726f2061646472657373a265627a7a72315820e5495e5a8872fb630d7f7cc8391a407658b93b247ad5eb8ba5f764272967ee5064736f6c63430005100032",
  "source": "pragma solidity >=0.4.22 <=0.6.0;\r\n\r\nimport \"./IERC20.sol\";\r\n\r\n\r\ncontract CDS is IERC20 {\r\n    //-----------------------------------------------------------------------------\r\n    mapping(address => uint256) private _balances;\r\n\r\n    mapping(address => mapping(address => uint256)) private _allowances;\r\n\r\n    uint256 private _totalSupply;\r\n\r\n    string private _name;\r\n    string private _symbol;\r\n    //-------------------------------------------------------------------------------\r\n    \r\n    \r\n    address chairperson;\r\n    struct Student {                     \r\n        uint weight;\r\n        bool voted;\r\n        uint vote;\r\n        uint membership;\r\n    }\r\n    \r\n    mapping (address=> Student) students;\r\n    mapping(address => uint)  fb_count;\r\n    mapping(address => uint) fb_time;\r\n    mapping(address => uint) reward_item;\r\n    struct Proposal {                  \r\n        uint voteCount;\r\n    }\r\n    \r\n     Proposal[] proposals;\r\n\r\n    enum Phase {Init,Regs, Vote, Done}  \r\n    Phase public state = Phase.Done; \r\n    \r\n       //modifiers\r\n   modifier validPhase(Phase reqPhase) \r\n    { require(state == reqPhase); \r\n      _; \r\n    } \r\n    \r\n      modifier onlyChairperson{ \r\n        require(msg.sender==chairperson);\r\n        _;\r\n    }\r\n    modifier onlyMember{ \r\n        require(students[msg.sender].membership == 1);\r\n        _;\r\n    }\r\n    \r\n   \r\n    constructor() public {\r\n        _name = 'Campus Feedback';\r\n        _symbol = 'CFB';\r\n        _totalSupply=10000;\r\n        _balances[msg.sender] = _totalSupply;\r\n        \r\n        chairperson = msg.sender;\r\n        students[chairperson].membership = 1;\r\n        state = Phase.Init;\r\n    }\r\n\r\n \r\n    function register (uint id ) public {\r\n        require(id > 100000 && id < 999999, 'Enter a vaild 6 digit ID');\r\n        students[msg.sender].membership = 1;\r\n        fb_count[msg.sender] = 0; \r\n        fb_time[msg.sender] = block.timestamp - 100;\r\n    }\r\n    \r\n    function unregister (address member ) public onlyMember { \r\n        students[member].membership = 0;\r\n    }\r\n    \r\n\r\n    function feedback(uint rating) public onlyMember {\r\n                                           \r\n        require(block.timestamp > fb_time[msg.sender] + 100);   \r\n        fb_time[msg.sender] = block.timestamp;\r\n        if(rating > 0){\r\n           fb_count[msg.sender]++;\r\n           _approve(chairperson, msg.sender, 20);\r\n           transferFrom(chairperson,msg.sender,10);\r\n        }\r\n    }\r\n    \r\n    function reward(address student) public onlyChairperson payable {\r\n        require(fb_count[student] > 0, 'Student should give a feedback first');\r\n            transfer(student,10);\r\n        \r\n    }\r\n    \r\n    function redeem(uint item) public onlyMember payable {\r\n        require(item > 0 && item < 4,'select any item from 1 - 3');\r\n        if(item == 1){\r\n            transfer(chairperson,20);\r\n            reward_item[msg.sender] = 1; }\r\n        else if(item == 2){\r\n            transfer(chairperson,40);\r\n            reward_item[msg.sender] = 2; }\r\n        else if(item == 3){\r\n            transfer(chairperson,60);\r\n            reward_item[msg.sender] = 3; }\r\n    }\r\n    \r\n    function balanceOf() public view   returns (uint256) {\r\n        return _balances[msg.sender];\r\n    }\r\n    \r\n    function Reward_item() public view returns (uint256) {\r\n        return reward_item[msg.sender];\r\n    }\r\n\r\n   \r\n\r\n//--------------------Voting-------------------------------------------------------------------------------\r\n     \r\n    function Initialte_voting(uint numProposals) onlyChairperson public {\r\n        \r\n        for (uint prop = 0; prop < numProposals; prop ++)\r\n            proposals.push(Proposal(0));\r\n        state = Phase.Regs;\r\n     }\r\n     \r\n    function changeState(Phase x) onlyChairperson public {\r\n        \r\n        //require (x > state );\r\n        state = x;\r\n     }\r\n     \r\n    function register_for_voting() public validPhase(Phase.Regs) onlyMember {\r\n        students[msg.sender].weight = 1;\r\n    }\r\n\r\n   \r\n    function Vote(uint toProposal) public validPhase(Phase.Vote)  {\r\n      \r\n        Student storage sender = students[msg.sender];\r\n        \r\n        require (!sender.voted); \r\n        require (toProposal < proposals.length); \r\n        \r\n        sender.voted = true;\r\n        sender.vote = toProposal;   \r\n        proposals[toProposal].voteCount += sender.weight;\r\n    }\r\n   \r\n    function Show_Result() public validPhase(Phase.Done) view returns (uint winningProposal) {\r\n       \r\n        uint winningVoteCount = 0;\r\n        for (uint prop = 0; prop < proposals.length; prop++) \r\n            if (proposals[prop].voteCount > winningVoteCount) {\r\n                winningVoteCount = proposals[prop].voteCount;\r\n                winningProposal = prop;\r\n            }\r\n       assert(winningVoteCount>=2);\r\n    }\r\n\r\n    function ShowState()  public view   returns (Phase)  {\r\n        \r\n        //require (x > state );\r\n        return state ;\r\n     }\r\n   \r\n   \r\n   \r\n   //---------------------------------------------------------------------------------------------\r\n   //                               ERC20 Functions\r\n   //---------------------------------------------------------------------------------------------\r\n    function transfer(address recipient, uint256 amount) internal   returns (bool) {\r\n        _transfer(_msgSender(), recipient, amount);\r\n        return true;\r\n    }\r\n\r\n   \r\n    function allowance(address owner, address spender) internal view   returns (uint256) {\r\n        return _allowances[owner][spender];\r\n    }\r\n\r\n  \r\n    function approve(address spender, uint256 amount) internal   returns (bool) {\r\n        _approve(_msgSender(), spender, amount);\r\n        return true;\r\n    }\r\n\r\n    \r\n    function transferFrom(\r\n        address sender,\r\n        address recipient,\r\n        uint256 amount\r\n    ) internal   returns (bool) {\r\n        _transfer(sender, recipient, amount);\r\n\r\n        uint256 currentAllowance = _allowances[sender][_msgSender()];\r\n        require(currentAllowance >= amount, \"ERC20: transfer amount exceeds allowance\");\r\n        \r\n            _approve(sender, _msgSender(), currentAllowance - amount);\r\n        \r\n\r\n        return true;\r\n    }\r\n\r\n   \r\n    function _transfer(\r\n        address sender,\r\n        address recipient,\r\n        uint256 amount\r\n    ) internal  {\r\n        require(sender != address(0), \"ERC20: transfer from the zero address\");\r\n        require(recipient != address(0), \"ERC20: transfer to the zero address\");\r\n\r\n        _beforeTokenTransfer(sender, recipient, amount);\r\n\r\n        uint256 senderBalance = _balances[sender];\r\n        require(senderBalance >= amount, \"ERC20: transfer amount exceeds balance\");\r\n        \r\n            _balances[sender] = senderBalance - amount;\r\n        \r\n        _balances[recipient] += amount;\r\n\r\n        emit Transfer(sender, recipient, amount);\r\n\r\n        _afterTokenTransfer(sender, recipient, amount);\r\n    }\r\n  \r\n    function _approve(\r\n        address owner,\r\n        address spender,\r\n        uint256 amount\r\n    ) internal  {\r\n        require(owner != address(0), \"ERC20: approve from the zero address\");\r\n        require(spender != address(0), \"ERC20: approve to the zero address\");\r\n\r\n        _allowances[owner][spender] = amount;\r\n        emit Approval(owner, spender, amount);\r\n    }\r\n\r\n    function _msgSender() internal view  returns (address) {\r\n        return msg.sender;\r\n    }\r\n    function _beforeTokenTransfer(\r\n        address from,\r\n        address to,\r\n        uint256 amount\r\n    ) internal  {}\r\n\r\n   \r\n    function _afterTokenTransfer(\r\n        address from,\r\n        address to,\r\n        uint256 amount\r\n    ) internal  {}\r\n    \r\n}\r\n",
  "sourcePath": "/Users/akshatasingh/Downloads/CDS-Dapp/cds-contract/contracts/CDS.sol",
  "compiler": {
    "name": "solc",
    "version": "0.5.16+commit.9c3226ce.Emscripten.clang"
  },
  "schemaVersion": "3.4.6",
  "updatedAt": "2022-04-03T07:41:09.347Z",
  "networkType": "ethereum",
  "devdoc": {
    "methods": {}
  },
  "userdoc": {
    "methods": {}
  }
}